{
  "contractName": "RPS",
  "abi": [
    {
      "inputs": [],
      "name": "AlreadyMatchingError",
      "type": "error"
    },
    {
      "inputs": [],
      "name": "ChoiceConflictError",
      "type": "error"
    },
    {
      "inputs": [],
      "name": "ChoiceOutOfRangeError",
      "type": "error"
    },
    {
      "inputs": [],
      "name": "EntranceFeeNotPaidError",
      "type": "error"
    },
    {
      "inputs": [],
      "name": "NoMatchError",
      "type": "error"
    },
    {
      "inputs": [],
      "name": "NotEnoughEntranceFeeError",
      "type": "error"
    },
    {
      "anonymous": false,
      "inputs": [
        {
          "indexed": true,
          "internalType": "address",
          "name": "_player",
          "type": "address"
        },
        {
          "indexed": false,
          "internalType": "int256",
          "name": "win",
          "type": "int256"
        }
      ],
      "name": "Cleared",
      "type": "event"
    },
    {
      "inputs": [],
      "name": "PayForEntrance",
      "outputs": [],
      "stateMutability": "payable",
      "type": "function",
      "payable": true
    },
    {
      "inputs": [],
      "name": "StartMatching",
      "outputs": [],
      "stateMutability": "nonpayable",
      "type": "function"
    },
    {
      "inputs": [],
      "name": "GetMatchingStatus",
      "outputs": [
        {
          "internalType": "bool",
          "name": "",
          "type": "bool"
        }
      ],
      "stateMutability": "view",
      "type": "function",
      "constant": true
    },
    {
      "inputs": [
        {
          "internalType": "uint256",
          "name": "choice",
          "type": "uint256"
        }
      ],
      "name": "SendChoice",
      "outputs": [],
      "stateMutability": "nonpayable",
      "type": "function"
    },
    {
      "inputs": [],
      "name": "WithDraw",
      "outputs": [],
      "stateMutability": "nonpayable",
      "type": "function"
    }
  ],
  "bytecode": "0x608060405234801561001057600080fd5b50611034806100206000396000f3fe60806040526004361061004a5760003560e01c8063203193b81461004f57806331e3e2fe1461007857806369c881ef1461008f578063a6868908146100a6578063c726a01e146100b0575b600080fd5b34801561005b57600080fd5b5061007660048036038101906100719190610e99565b6100db565b005b34801561008457600080fd5b5061008d6108d1565b005b34801561009b57600080fd5b506100a46109a4565b005b6100ae610d20565b005b3480156100bc57600080fd5b506100c5610dba565b6040516100d29190610ee1565b60405180910390f35b6100e3610dba565b610119576040517fd564985500000000000000000000000000000000000000000000000000000000815260040160405180910390fd5b6000600460003373ffffffffffffffffffffffffffffffffffffffff1673ffffffffffffffffffffffffffffffffffffffff1681526020019081526020016000205414610192576040517f1390f8d000000000000000000000000000000000000000000000000000000000815260040160405180910390fd5b60008114806101a15750600381115b156101d8576040517fd588ebcb00000000000000000000000000000000000000000000000000000000815260040160405180910390fd5b60008060003373ffffffffffffffffffffffffffffffffffffffff1673ffffffffffffffffffffffffffffffffffffffff16815260200190815260200160002060009054906101000a900473ffffffffffffffffffffffffffffffffffffffff1690506000600460008373ffffffffffffffffffffffffffffffffffffffff1673ffffffffffffffffffffffffffffffffffffffff16815260200190815260200160002054905060008114156102d35782600460003373ffffffffffffffffffffffffffffffffffffffff1673ffffffffffffffffffffffffffffffffffffffff1681526020019081526020016000208190555050506108ce565b600081841461039d576003841415610320576001821415610316577fffffffffffffffffffffffffffffffffffffffffffffffffffffffffffffffff905061031b565b600190505b61039c565b600184141561036457600282141561035a577fffffffffffffffffffffffffffffffffffffffffffffffffffffffffffffffff905061035f565b600190505b61039b565b6003821415610395577fffffffffffffffffffffffffffffffffffffffffffffffffffffffffffffffff905061039a565b600190505b5b5b5b6000811261043f57600260003373ffffffffffffffffffffffffffffffffffffffff1673ffffffffffffffffffffffffffffffffffffffff16815260200190815260200160002054600360003373ffffffffffffffffffffffffffffffffffffffff1673ffffffffffffffffffffffffffffffffffffffff16815260200190815260200160002060008282546104339190610f2b565b925050819055506104d5565b600260003373ffffffffffffffffffffffffffffffffffffffff1673ffffffffffffffffffffffffffffffffffffffff16815260200190815260200160002054600360008573ffffffffffffffffffffffffffffffffffffffff1673ffffffffffffffffffffffffffffffffffffffff16815260200190815260200160002060008282546104cd9190610f2b565b925050819055505b6000811361057757600260008473ffffffffffffffffffffffffffffffffffffffff1673ffffffffffffffffffffffffffffffffffffffff16815260200190815260200160002054600360008573ffffffffffffffffffffffffffffffffffffffff1673ffffffffffffffffffffffffffffffffffffffff168152602001908152602001600020600082825461056b9190610f2b565b9250508190555061060d565b600260008473ffffffffffffffffffffffffffffffffffffffff1673ffffffffffffffffffffffffffffffffffffffff16815260200190815260200160002054600360003373ffffffffffffffffffffffffffffffffffffffff1673ffffffffffffffffffffffffffffffffffffffff16815260200190815260200160002060008282546106059190610f2b565b925050819055505b6000600260003373ffffffffffffffffffffffffffffffffffffffff1673ffffffffffffffffffffffffffffffffffffffff168152602001908152602001600020819055506000600260008573ffffffffffffffffffffffffffffffffffffffff1673ffffffffffffffffffffffffffffffffffffffff168152602001908152602001600020819055506000600460003373ffffffffffffffffffffffffffffffffffffffff1673ffffffffffffffffffffffffffffffffffffffff168152602001908152602001600020819055506000600460008573ffffffffffffffffffffffffffffffffffffffff1673ffffffffffffffffffffffffffffffffffffffff168152602001908152602001600020819055506000808473ffffffffffffffffffffffffffffffffffffffff1673ffffffffffffffffffffffffffffffffffffffff16815260200190815260200160002060006101000a81549073ffffffffffffffffffffffffffffffffffffffff02191690556000803373ffffffffffffffffffffffffffffffffffffffff1673ffffffffffffffffffffffffffffffffffffffff16815260200190815260200160002060006101000a81549073ffffffffffffffffffffffffffffffffffffffff02191690556000600160006101000a81548173ffffffffffffffffffffffffffffffffffffffff021916908373ffffffffffffffffffffffffffffffffffffffff1602179055503373ffffffffffffffffffffffffffffffffffffffff167f3410d2be170a47f03e0a05127347e481059f20445efe143d6f8b40709d88bdd88260405161086b9190610f9a565b60405180910390a28273ffffffffffffffffffffffffffffffffffffffff167f3410d2be170a47f03e0a05127347e481059f20445efe143d6f8b40709d88bdd8826108b590610fb5565b6040516108c29190610f9a565b60405180910390a25050505b50565b6000600360003373ffffffffffffffffffffffffffffffffffffffff1673ffffffffffffffffffffffffffffffffffffffff1681526020019081526020016000205490503373ffffffffffffffffffffffffffffffffffffffff166108fc829081150290604051600060405180830381858888f1935050505015801561095b573d6000803e3d6000fd5b506000600360003373ffffffffffffffffffffffffffffffffffffffff1673ffffffffffffffffffffffffffffffffffffffff1681526020019081526020016000208190555050565b670de0b6b3a7640000600260003373ffffffffffffffffffffffffffffffffffffffff1673ffffffffffffffffffffffffffffffffffffffff168152602001908152602001600020541015610a25576040517f876516f200000000000000000000000000000000000000000000000000000000815260040160405180910390fd5b3373ffffffffffffffffffffffffffffffffffffffff16600160009054906101000a900473ffffffffffffffffffffffffffffffffffffffff1673ffffffffffffffffffffffffffffffffffffffff161480610b0c5750600073ffffffffffffffffffffffffffffffffffffffff166000803373ffffffffffffffffffffffffffffffffffffffff1673ffffffffffffffffffffffffffffffffffffffff16815260200190815260200160002060009054906101000a900473ffffffffffffffffffffffffffffffffffffffff1673ffffffffffffffffffffffffffffffffffffffff1614155b15610b43576040517fa71d154200000000000000000000000000000000000000000000000000000000815260040160405180910390fd5b600073ffffffffffffffffffffffffffffffffffffffff16600160009054906101000a900473ffffffffffffffffffffffffffffffffffffffff1673ffffffffffffffffffffffffffffffffffffffff1614610cdc57600160009054906101000a900473ffffffffffffffffffffffffffffffffffffffff166000803373ffffffffffffffffffffffffffffffffffffffff1673ffffffffffffffffffffffffffffffffffffffff16815260200190815260200160002060006101000a81548173ffffffffffffffffffffffffffffffffffffffff021916908373ffffffffffffffffffffffffffffffffffffffff16021790555033600080600160009054906101000a900473ffffffffffffffffffffffffffffffffffffffff1673ffffffffffffffffffffffffffffffffffffffff1673ffffffffffffffffffffffffffffffffffffffff16815260200190815260200160002060006101000a81548173ffffffffffffffffffffffffffffffffffffffff021916908373ffffffffffffffffffffffffffffffffffffffff160217905550610d1e565b33600160006101000a81548173ffffffffffffffffffffffffffffffffffffffff021916908373ffffffffffffffffffffffffffffffffffffffff1602179055505b565b670de0b6b3a7640000341015610d62576040517fdb75855900000000000000000000000000000000000000000000000000000000815260040160405180910390fd5b34600260003373ffffffffffffffffffffffffffffffffffffffff1673ffffffffffffffffffffffffffffffffffffffff1681526020019081526020016000206000828254610db19190610f2b565b92505081905550565b60008073ffffffffffffffffffffffffffffffffffffffff166000803373ffffffffffffffffffffffffffffffffffffffff1673ffffffffffffffffffffffffffffffffffffffff16815260200190815260200160002060009054906101000a900473ffffffffffffffffffffffffffffffffffffffff1673ffffffffffffffffffffffffffffffffffffffff1614610e565760019050610e5b565b600090505b90565b600080fd5b6000819050919050565b610e7681610e63565b8114610e8157600080fd5b50565b600081359050610e9381610e6d565b92915050565b600060208284031215610eaf57610eae610e5e565b5b6000610ebd84828501610e84565b91505092915050565b60008115159050919050565b610edb81610ec6565b82525050565b6000602082019050610ef66000830184610ed2565b92915050565b7f4e487b7100000000000000000000000000000000000000000000000000000000600052601160045260246000fd5b6000610f3682610e63565b9150610f4183610e63565b9250827fffffffffffffffffffffffffffffffffffffffffffffffffffffffffffffffff03821115610f7657610f75610efc565b5b828201905092915050565b6000819050919050565b610f9481610f81565b82525050565b6000602082019050610faf6000830184610f8b565b92915050565b6000610fc082610f81565b91507f8000000000000000000000000000000000000000000000000000000000000000821415610ff357610ff2610efc565b5b81600003905091905056fea26469706673582212205dc9e2d4d3a60d742603432d825e8a4fe8731bc088ac6b9517aaf415611a0c4a64736f6c634300080b0033",
  "immutableReferences": {},
  "source": "// SPDX-License-Identifier: MIT\npragma solidity >=0.4.22 <0.9.0;\n\nerror AlreadyMatchingError();\nerror NotEnoughEntranceFeeError();\nerror EntranceFeeNotPaidError();\nerror NoMatchError();\nerror ChoiceConflictError();\nerror ChoiceOutOfRangeError();\n\n\ncontract RPS{\n    mapping(address => address) matching;\n    address waiting;\n    mapping(address=> uint) deposits;\n    mapping(address=>uint) rewards;\n    mapping(address=> uint) choices;\n    event Cleared(address indexed _player, int win);\n    uint constant Ticket = 1000000000000000000;\n\n\n    function PayForEntrance() public payable{\n        if(msg.value < Ticket){\n            revert NotEnoughEntranceFeeError();\n        }\n        deposits[msg.sender] += msg.value;\n    }\n\n\n    function StartMatching() public {\n        if(deposits[msg.sender]<Ticket){\n            revert EntranceFeeNotPaidError();\n        }\n        if(waiting == msg.sender || matching[msg.sender] != address(0)){\n            revert AlreadyMatchingError();\n        }\n        if(waiting != address(0)){\n            matching[msg.sender] = waiting;\n            matching[waiting] = msg.sender;\n        }else{\n            waiting = msg.sender;\n        }\n    }\n    \n    function GetMatchingStatus() public view returns(bool){\n        if(matching[msg.sender] != address(0)){\n            return true;\n        }\n        return false;\n    }\n\n    function SendChoice(uint choice) public {\n        // Hasn't matched\n        if(!GetMatchingStatus()){\n            revert NoMatchError();\n        }\n        //Choice already sent\n        if(choices[msg.sender] != 0){\n            revert ChoiceConflictError();\n        }\n        if(choice == 0 || choice >3){\n            revert ChoiceOutOfRangeError();\n        }\n        address opponent = matching[msg.sender];\n        uint otherChoice = choices[opponent];\n        // The opponent hasn't made their decision, (but should be as soon as their GetMatchingStatus returns true)\n        if(otherChoice == 0){\n            choices[msg.sender] = choice;\n            return;\n        }\n        // Both parties have made decisions. It's time for a clearance. \n        int win = 0;\n        if(choice != otherChoice){\n            if(choice == 3){\n                if(otherChoice == 1){\n                    win = -1;\n                }else{\n                    win = 1;\n                }\n            }else if(choice == 1){\n                if(otherChoice == 2){\n                    win = -1;\n                }else{\n                    win = 1;\n                }\n            }else{\n                if(otherChoice == 3){\n                    win = -1;\n                }else{\n                    win = 1;\n                }\n            }\n        }\n        if(win >=0 )\n            rewards[msg.sender] += deposits[msg.sender];\n        else\n            rewards[opponent] += deposits[msg.sender];\n        if(win <=0)\n            rewards[opponent] += deposits[opponent];\n        else\n            rewards[msg.sender] += deposits[opponent];\n        \n        // Clear the deposits\n        deposits[msg.sender] =0;\n        deposits[opponent] = 0;\n        // Notify the waiting parties\n        choices[msg.sender] = 0;\n        choices[opponent] = 0;\n        //Clear everything up \n        delete matching[opponent]; \n        delete matching[msg.sender];\n        waiting = address(0);\n        emit Cleared(msg.sender, win);\n        emit Cleared(opponent, -win);\n    }\n\n\n    function WithDraw() public{\n        uint amount = rewards[msg.sender];\n        payable(msg.sender).transfer(amount);\n        rewards[msg.sender] = 0;\n    }\n\n}",
  "sourcePath": "D:\\blockchain\\testcontract\\RPSContract\\contracts\\RPS.sol",
  "compiler": {
    "name": "solc",
    "version": "0.8.11+commit.d7f03943.Emscripten.clang"
  },
  "schemaVersion": "3.4.4",
  "updatedAt": "2022-02-25T05:43:47.279Z",
  "networkType": "ethereum",
  "devdoc": {
    "kind": "dev",
    "methods": {},
    "version": 1
  },
  "userdoc": {
    "kind": "user",
    "methods": {},
    "version": 1
  }
}