{
    "contractName": "RPS",
    "abi": [
        {
            "inputs": [],
            "name": "AlreadyMatchingError",
            "type": "error"
        },
        {
            "inputs": [],
            "name": "ChoiceConflictError",
            "type": "error"
        },
        {
            "inputs": [],
            "name": "ChoiceOutOfRangeError",
            "type": "error"
        },
        {
            "inputs": [],
            "name": "EntranceFeeNotPaidError",
            "type": "error"
        },
        {
            "inputs": [],
            "name": "NoMatchError",
            "type": "error"
        },
        {
            "inputs": [],
            "name": "NotEnoughEntranceFeeError",
            "type": "error"
        },
        {
            "anonymous": false,
            "inputs": [
                {
                    "indexed": true,
                    "internalType": "address",
                    "name": "_player",
                    "type": "address"
                },
                {
                    "indexed": false,
                    "internalType": "int256",
                    "name": "win",
                    "type": "int256"
                }
            ],
            "name": "Cleared",
            "type": "event"
        },
        {
            "inputs": [],
            "name": "GetMatchingStatus",
            "outputs": [
                {
                    "internalType": "bool",
                    "name": "",
                    "type": "bool"
                }
            ],
            "stateMutability": "view",
            "type": "function"
        },
        {
            "inputs": [],
            "name": "PayForEntrance",
            "outputs": [],
            "stateMutability": "payable",
            "type": "function"
        },
        {
            "inputs": [
                {
                    "internalType": "uint256",
                    "name": "choice",
                    "type": "uint256"
                }
            ],
            "name": "SendChoice",
            "outputs": [],
            "stateMutability": "nonpayable",
            "type": "function"
        },
        {
            "inputs": [],
            "name": "StartMatching",
            "outputs": [],
            "stateMutability": "nonpayable",
            "type": "function"
        },
        {
            "inputs": [],
            "name": "WithDraw",
            "outputs": [],
            "stateMutability": "nonpayable",
            "type": "function"
        }
    ],
    "bytecode": "608060405234801561001057600080fd5b5061061d806100206000396000f3fe60806040526004361061004a5760003560e01c8063203193b81461004f57806331e3e2fe1461007157806369c881ef14610086578063a68689081461009b578063c726a01e146100a3575b600080fd5b34801561005b57600080fd5b5061006f61006a366004610583565b6100cc565b005b34801561007d57600080fd5b5061006f6103c9565b34801561009257600080fd5b5061006f610419565b61006f61050a565b3480156100af57600080fd5b506100b8610559565b604051901515815260200160405180910390f35b6100d4610559565b6100f15760405163d564985560e01b815260040160405180910390fd5b336000908152600460205260409020541561011f576040516301390f8d60e41b815260040160405180910390fd5b80158061012c5750600381115b1561014a5760405163d588ebcb60e01b815260040160405180910390fd5b33600090815260208181526040808320546001600160a01b03168084526004909252909120548061018957505033600090815260046020526040902055565b60008184146101e65783600314156101b55781600114156101ad57506000196101e6565b5060016101e6565b83600114156101d05781600214156101ad57506000196101e6565b81600314156101e257506000196101e6565b5060015b600081126102245733600090815260026020908152604080832054600390925282208054919290916102199084906105b2565b909155506102619050565b336000908152600260209081526040808320546001600160a01b03871684526003909252822080549192909161025b9084906105b2565b90915550505b600081136102a8576001600160a01b0383166000908152600260209081526040808320546003909252822080549192909161029d9084906105b2565b909155506102e59050565b6001600160a01b038316600090815260026020908152604080832054338452600390925282208054919290916102df9084906105b2565b90915550505b3360008181526002602052604080822091909155517f3410d2be170a47f03e0a05127347e481059f20445efe143d6f8b40709d88bdd8906103299084815260200190565b60405180910390a26001600160a01b0383167f3410d2be170a47f03e0a05127347e481059f20445efe143d6f8b40709d88bdd8610365836105ca565b60405190815260200160405180910390a250503360008181526004602090815260408083208390556001600160a01b0394909416825283822082905581905282812080546001600160a01b0319908116909155918152919091208054909116905550565b3360008181526003602052604080822054905190929183156108fc02918491818181858888f19350505050158015610405573d6000803e3d6000fd5b505033600090815260036020526040812055565b33600090815260026020526040902054670de0b6b3a76400001115610451576040516343b28b7960e11b815260040160405180910390fd5b6001546001600160a01b03163314806104815750336000908152602081905260409020546001600160a01b031615155b1561049f5760405163538e8aa160e11b815260040160405180910390fd5b6001546001600160a01b0316156104f657600180543360008181526020819052604080822080546001600160a01b03199081166001600160a01b039687161790915594549093168152919091208054909216179055565b600180546001600160a01b03191633179055565b670de0b6b3a76400003410156105335760405163db75855960e01b815260040160405180910390fd5b33600090815260026020526040812080543492906105529084906105b2565b9091555050565b336000908152602081905260408120546001600160a01b03161561057d5750600190565b50600090565b60006020828403121561059557600080fd5b5035919050565b634e487b7160e01b600052601160045260246000fd5b600082198211156105c5576105c561059c565b500190565b6000600160ff1b8214156105e0576105e061059c565b506000039056fea2646970667358221220e45fa6efe436bfbb9313290a8604b89e8e3f1f759545b7c926ae75eead19fe0964736f6c634300080c0033",
    "sourcePath": "d:/blockchain/testcontract/RPSContract/contracts/RPS.sol",
    "compiler": {
        "name": "solc",
        "version": "0.8.12+commit.f00d7308"
    },
    "functionHashes": {
        "GetMatchingStatus()": "c726a01e",
        "PayForEntrance()": "a6868908",
        "SendChoice(uint256)": "203193b8",
        "StartMatching()": "69c881ef",
        "WithDraw()": "31e3e2fe"
    },
    "gasEstimates": {
        "creation": {
            "codeDepositCost": "313000",
            "executionCost": "349",
            "totalCost": "313349"
        },
        "external": {
            "GetMatchingStatus()": "2478",
            "PayForEntrance()": "24554",
            "SendChoice(uint256)": "2495",
            "StartMatching()": "61690",
            "WithDraw()": "infinite"
        }
    }
}